{
  "_format": "hh-sol-artifact-1",
  "contractName": "NFTMarketplace",
  "sourceName": "contracts/Nftmarketplace.sol",
  "abi": [
    {
      "inputs": [
        {
          "internalType": "address",
          "name": "initialOwner",
          "type": "address"
        }
      ],
      "stateMutability": "nonpayable",
      "type": "constructor"
    },
    {
      "inputs": [
        {
          "internalType": "address",
          "name": "sender",
          "type": "address"
        },
        {
          "internalType": "uint256",
          "name": "tokenId",
          "type": "uint256"
        },
        {
          "internalType": "address",
          "name": "owner",
          "type": "address"
        }
      ],
      "name": "ERC721IncorrectOwner",
      "type": "error"
    },
    {
      "inputs": [
        {
          "internalType": "address",
          "name": "operator",
          "type": "address"
        },
        {
          "internalType": "uint256",
          "name": "tokenId",
          "type": "uint256"
        }
      ],
      "name": "ERC721InsufficientApproval",
      "type": "error"
    },
    {
      "inputs": [
        {
          "internalType": "address",
          "name": "approver",
          "type": "address"
        }
      ],
      "name": "ERC721InvalidApprover",
      "type": "error"
    },
    {
      "inputs": [
        {
          "internalType": "address",
          "name": "operator",
          "type": "address"
        }
      ],
      "name": "ERC721InvalidOperator",
      "type": "error"
    },
    {
      "inputs": [
        {
          "internalType": "address",
          "name": "owner",
          "type": "address"
        }
      ],
      "name": "ERC721InvalidOwner",
      "type": "error"
    },
    {
      "inputs": [
        {
          "internalType": "address",
          "name": "receiver",
          "type": "address"
        }
      ],
      "name": "ERC721InvalidReceiver",
      "type": "error"
    },
    {
      "inputs": [
        {
          "internalType": "address",
          "name": "sender",
          "type": "address"
        }
      ],
      "name": "ERC721InvalidSender",
      "type": "error"
    },
    {
      "inputs": [
        {
          "internalType": "uint256",
          "name": "tokenId",
          "type": "uint256"
        }
      ],
      "name": "ERC721NonexistentToken",
      "type": "error"
    },
    {
      "inputs": [
        {
          "internalType": "address",
          "name": "owner",
          "type": "address"
        }
      ],
      "name": "OwnableInvalidOwner",
      "type": "error"
    },
    {
      "inputs": [
        {
          "internalType": "address",
          "name": "account",
          "type": "address"
        }
      ],
      "name": "OwnableUnauthorizedAccount",
      "type": "error"
    },
    {
      "anonymous": false,
      "inputs": [
        {
          "indexed": true,
          "internalType": "address",
          "name": "owner",
          "type": "address"
        },
        {
          "indexed": true,
          "internalType": "address",
          "name": "approved",
          "type": "address"
        },
        {
          "indexed": true,
          "internalType": "uint256",
          "name": "tokenId",
          "type": "uint256"
        }
      ],
      "name": "Approval",
      "type": "event"
    },
    {
      "anonymous": false,
      "inputs": [
        {
          "indexed": true,
          "internalType": "address",
          "name": "owner",
          "type": "address"
        },
        {
          "indexed": true,
          "internalType": "address",
          "name": "operator",
          "type": "address"
        },
        {
          "indexed": false,
          "internalType": "bool",
          "name": "approved",
          "type": "bool"
        }
      ],
      "name": "ApprovalForAll",
      "type": "event"
    },
    {
      "anonymous": false,
      "inputs": [
        {
          "indexed": false,
          "internalType": "uint256",
          "name": "_fromTokenId",
          "type": "uint256"
        },
        {
          "indexed": false,
          "internalType": "uint256",
          "name": "_toTokenId",
          "type": "uint256"
        }
      ],
      "name": "BatchMetadataUpdate",
      "type": "event"
    },
    {
      "anonymous": false,
      "inputs": [
        {
          "indexed": false,
          "internalType": "uint256",
          "name": "_tokenId",
          "type": "uint256"
        }
      ],
      "name": "MetadataUpdate",
      "type": "event"
    },
    {
      "anonymous": false,
      "inputs": [
        {
          "indexed": false,
          "internalType": "uint256",
          "name": "tokenId",
          "type": "uint256"
        },
        {
          "indexed": false,
          "internalType": "address",
          "name": "seller",
          "type": "address"
        },
        {
          "indexed": false,
          "internalType": "uint256",
          "name": "price",
          "type": "uint256"
        }
      ],
      "name": "NFTListed",
      "type": "event"
    },
    {
      "anonymous": false,
      "inputs": [
        {
          "indexed": false,
          "internalType": "uint256",
          "name": "tokenId",
          "type": "uint256"
        },
        {
          "indexed": false,
          "internalType": "address",
          "name": "owner",
          "type": "address"
        },
        {
          "indexed": false,
          "internalType": "string",
          "name": "tokenURI",
          "type": "string"
        }
      ],
      "name": "NFTMinted",
      "type": "event"
    },
    {
      "anonymous": false,
      "inputs": [
        {
          "indexed": false,
          "internalType": "uint256",
          "name": "tokenId",
          "type": "uint256"
        },
        {
          "indexed": false,
          "internalType": "address",
          "name": "buyer",
          "type": "address"
        },
        {
          "indexed": false,
          "internalType": "uint256",
          "name": "price",
          "type": "uint256"
        }
      ],
      "name": "NFTSold",
      "type": "event"
    },
    {
      "anonymous": false,
      "inputs": [
        {
          "indexed": true,
          "internalType": "address",
          "name": "previousOwner",
          "type": "address"
        },
        {
          "indexed": true,
          "internalType": "address",
          "name": "newOwner",
          "type": "address"
        }
      ],
      "name": "OwnershipTransferred",
      "type": "event"
    },
    {
      "anonymous": false,
      "inputs": [
        {
          "indexed": true,
          "internalType": "address",
          "name": "from",
          "type": "address"
        },
        {
          "indexed": true,
          "internalType": "address",
          "name": "to",
          "type": "address"
        },
        {
          "indexed": true,
          "internalType": "uint256",
          "name": "tokenId",
          "type": "uint256"
        }
      ],
      "name": "Transfer",
      "type": "event"
    },
    {
      "inputs": [
        {
          "internalType": "address",
          "name": "to",
          "type": "address"
        },
        {
          "internalType": "uint256",
          "name": "tokenId",
          "type": "uint256"
        }
      ],
      "name": "approve",
      "outputs": [],
      "stateMutability": "nonpayable",
      "type": "function"
    },
    {
      "inputs": [
        {
          "internalType": "address",
          "name": "owner",
          "type": "address"
        }
      ],
      "name": "balanceOf",
      "outputs": [
        {
          "internalType": "uint256",
          "name": "",
          "type": "uint256"
        }
      ],
      "stateMutability": "view",
      "type": "function"
    },
    {
      "inputs": [
        {
          "internalType": "uint256",
          "name": "tokenId",
          "type": "uint256"
        }
      ],
      "name": "buyNFT",
      "outputs": [],
      "stateMutability": "payable",
      "type": "function"
    },
    {
      "inputs": [
        {
          "internalType": "uint256",
          "name": "tokenId",
          "type": "uint256"
        }
      ],
      "name": "getApproved",
      "outputs": [
        {
          "internalType": "address",
          "name": "",
          "type": "address"
        }
      ],
      "stateMutability": "view",
      "type": "function"
    },
    {
      "inputs": [],
      "name": "getListingFee",
      "outputs": [
        {
          "internalType": "uint256",
          "name": "",
          "type": "uint256"
        }
      ],
      "stateMutability": "view",
      "type": "function"
    },
    {
      "inputs": [],
      "name": "getMintingFee",
      "outputs": [
        {
          "internalType": "uint256",
          "name": "",
          "type": "uint256"
        }
      ],
      "stateMutability": "view",
      "type": "function"
    },
    {
      "inputs": [
        {
          "internalType": "address",
          "name": "owner",
          "type": "address"
        },
        {
          "internalType": "address",
          "name": "operator",
          "type": "address"
        }
      ],
      "name": "isApprovedForAll",
      "outputs": [
        {
          "internalType": "bool",
          "name": "",
          "type": "bool"
        }
      ],
      "stateMutability": "view",
      "type": "function"
    },
    {
      "inputs": [
        {
          "internalType": "uint256",
          "name": "tokenId",
          "type": "uint256"
        },
        {
          "internalType": "uint256",
          "name": "price",
          "type": "uint256"
        }
      ],
      "name": "listNFT",
      "outputs": [],
      "stateMutability": "payable",
      "type": "function"
    },
    {
      "inputs": [
        {
          "internalType": "uint256",
          "name": "",
          "type": "uint256"
        }
      ],
      "name": "listings",
      "outputs": [
        {
          "internalType": "uint256",
          "name": "tokenId",
          "type": "uint256"
        },
        {
          "internalType": "address payable",
          "name": "seller",
          "type": "address"
        },
        {
          "internalType": "uint256",
          "name": "price",
          "type": "uint256"
        },
        {
          "internalType": "bool",
          "name": "isListed",
          "type": "bool"
        }
      ],
      "stateMutability": "view",
      "type": "function"
    },
    {
      "inputs": [
        {
          "internalType": "string",
          "name": "tokenURI",
          "type": "string"
        }
      ],
      "name": "mintNFT",
      "outputs": [
        {
          "internalType": "uint256",
          "name": "",
          "type": "uint256"
        }
      ],
      "stateMutability": "payable",
      "type": "function"
    },
    {
      "inputs": [],
      "name": "name",
      "outputs": [
        {
          "internalType": "string",
          "name": "",
          "type": "string"
        }
      ],
      "stateMutability": "view",
      "type": "function"
    },
    {
      "inputs": [],
      "name": "owner",
      "outputs": [
        {
          "internalType": "address",
          "name": "",
          "type": "address"
        }
      ],
      "stateMutability": "view",
      "type": "function"
    },
    {
      "inputs": [
        {
          "internalType": "uint256",
          "name": "tokenId",
          "type": "uint256"
        }
      ],
      "name": "ownerOf",
      "outputs": [
        {
          "internalType": "address",
          "name": "",
          "type": "address"
        }
      ],
      "stateMutability": "view",
      "type": "function"
    },
    {
      "inputs": [],
      "name": "renounceOwnership",
      "outputs": [],
      "stateMutability": "nonpayable",
      "type": "function"
    },
    {
      "inputs": [
        {
          "internalType": "address",
          "name": "from",
          "type": "address"
        },
        {
          "internalType": "address",
          "name": "to",
          "type": "address"
        },
        {
          "internalType": "uint256",
          "name": "tokenId",
          "type": "uint256"
        }
      ],
      "name": "safeTransferFrom",
      "outputs": [],
      "stateMutability": "nonpayable",
      "type": "function"
    },
    {
      "inputs": [
        {
          "internalType": "address",
          "name": "from",
          "type": "address"
        },
        {
          "internalType": "address",
          "name": "to",
          "type": "address"
        },
        {
          "internalType": "uint256",
          "name": "tokenId",
          "type": "uint256"
        },
        {
          "internalType": "bytes",
          "name": "data",
          "type": "bytes"
        }
      ],
      "name": "safeTransferFrom",
      "outputs": [],
      "stateMutability": "nonpayable",
      "type": "function"
    },
    {
      "inputs": [
        {
          "internalType": "address",
          "name": "operator",
          "type": "address"
        },
        {
          "internalType": "bool",
          "name": "approved",
          "type": "bool"
        }
      ],
      "name": "setApprovalForAll",
      "outputs": [],
      "stateMutability": "nonpayable",
      "type": "function"
    },
    {
      "inputs": [
        {
          "internalType": "uint256",
          "name": "newFee",
          "type": "uint256"
        }
      ],
      "name": "setListingFee",
      "outputs": [],
      "stateMutability": "nonpayable",
      "type": "function"
    },
    {
      "inputs": [
        {
          "internalType": "uint256",
          "name": "newFee",
          "type": "uint256"
        }
      ],
      "name": "setMintingFee",
      "outputs": [],
      "stateMutability": "nonpayable",
      "type": "function"
    },
    {
      "inputs": [
        {
          "internalType": "bytes4",
          "name": "interfaceId",
          "type": "bytes4"
        }
      ],
      "name": "supportsInterface",
      "outputs": [
        {
          "internalType": "bool",
          "name": "",
          "type": "bool"
        }
      ],
      "stateMutability": "view",
      "type": "function"
    },
    {
      "inputs": [],
      "name": "symbol",
      "outputs": [
        {
          "internalType": "string",
          "name": "",
          "type": "string"
        }
      ],
      "stateMutability": "view",
      "type": "function"
    },
    {
      "inputs": [
        {
          "internalType": "uint256",
          "name": "tokenId",
          "type": "uint256"
        }
      ],
      "name": "tokenURI",
      "outputs": [
        {
          "internalType": "string",
          "name": "",
          "type": "string"
        }
      ],
      "stateMutability": "view",
      "type": "function"
    },
    {
      "inputs": [
        {
          "internalType": "address",
          "name": "from",
          "type": "address"
        },
        {
          "internalType": "address",
          "name": "to",
          "type": "address"
        },
        {
          "internalType": "uint256",
          "name": "tokenId",
          "type": "uint256"
        }
      ],
      "name": "transferFrom",
      "outputs": [],
      "stateMutability": "nonpayable",
      "type": "function"
    },
    {
      "inputs": [
        {
          "internalType": "address",
          "name": "newOwner",
          "type": "address"
        }
      ],
      "name": "transferOwnership",
      "outputs": [],
      "stateMutability": "nonpayable",
      "type": "function"
    },
    {
      "inputs": [],
      "name": "withdraw",
      "outputs": [],
      "stateMutability": "nonpayable",
      "type": "function"
    }
  ],
  "bytecode": "0x6080604052662386f26fc1000060095566b1a2bc2ec50000600a553480156200002757600080fd5b50604051620039a0380380620039a083398181016040528101906200004d91906200029e565b806040518060400160405280600e81526020017f4e46544d61726b6574706c6163650000000000000000000000000000000000008152506040518060400160405280600481526020017f4e46544d000000000000000000000000000000000000000000000000000000008152508160009081620000cb91906200054a565b508060019081620000dd91906200054a565b505050600073ffffffffffffffffffffffffffffffffffffffff168173ffffffffffffffffffffffffffffffffffffffff1603620001555760006040517f1e4fbdf70000000000000000000000000000000000000000000000000000000081526004016200014c919062000642565b60405180910390fd5b62000166816200016e60201b60201c565b50506200065f565b6000600760009054906101000a900473ffffffffffffffffffffffffffffffffffffffff16905081600760006101000a81548173ffffffffffffffffffffffffffffffffffffffff021916908373ffffffffffffffffffffffffffffffffffffffff1602179055508173ffffffffffffffffffffffffffffffffffffffff168173ffffffffffffffffffffffffffffffffffffffff167f8be0079c531659141344cd1fd0a4f28419497f9722a3daafe3b4186f6b6457e060405160405180910390a35050565b600080fd5b600073ffffffffffffffffffffffffffffffffffffffff82169050919050565b6000620002668262000239565b9050919050565b620002788162000259565b81146200028457600080fd5b50565b60008151905062000298816200026d565b92915050565b600060208284031215620002b757620002b662000234565b5b6000620002c78482850162000287565b91505092915050565b600081519050919050565b7f4e487b7100000000000000000000000000000000000000000000000000000000600052604160045260246000fd5b7f4e487b7100000000000000000000000000000000000000000000000000000000600052602260045260246000fd5b600060028204905060018216806200035257607f821691505b6020821081036200036857620003676200030a565b5b50919050565b60008190508160005260206000209050919050565b60006020601f8301049050919050565b600082821b905092915050565b600060088302620003d27fffffffffffffffffffffffffffffffffffffffffffffffffffffffffffffffff8262000393565b620003de868362000393565b95508019841693508086168417925050509392505050565b6000819050919050565b6000819050919050565b60006200042b620004256200041f84620003f6565b62000400565b620003f6565b9050919050565b6000819050919050565b62000447836200040a565b6200045f620004568262000432565b848454620003a0565b825550505050565b600090565b6200047662000467565b620004838184846200043c565b505050565b5b81811015620004ab576200049f6000826200046c565b60018101905062000489565b5050565b601f821115620004fa57620004c4816200036e565b620004cf8462000383565b81016020851015620004df578190505b620004f7620004ee8562000383565b83018262000488565b50505b505050565b600082821c905092915050565b60006200051f60001984600802620004ff565b1980831691505092915050565b60006200053a83836200050c565b9150826002028217905092915050565b6200055582620002d0565b67ffffffffffffffff811115620005715762000570620002db565b5b6200057d825462000339565b6200058a828285620004af565b600060209050601f831160018114620005c25760008415620005ad578287015190505b620005b985826200052c565b86555062000629565b601f198416620005d2866200036e565b60005b82811015620005fc57848901518255600182019150602085019450602081019050620005d5565b868310156200061c578489015162000618601f8916826200050c565b8355505b6001600288020188555050505b505050505050565b6200063c8162000259565b82525050565b600060208201905062000659600083018462000631565b92915050565b613331806200066f6000396000f3fe6080604052600436106101665760003560e01c8063715018a6116100d1578063b88d4fde1161008a578063de74e57b11610064578063de74e57b146104f8578063e985e9c514610538578063f2fde38b14610575578063fb37e8831461059e57610166565b8063b88d4fde14610467578063b8fe6abe14610490578063c87b56dd146104bb57610166565b8063715018a61461038a5780638da5cb5b146103a157806394383f14146103cc57806395d89b41146103e8578063a22cb46514610413578063b59d88a91461043c57610166565b806323b872dd1161012357806323b872dd1461028b5780633ccfd60b146102b457806342842e0e146102cb57806351ed8288146102f45780636352211e1461031057806370a082311461034d57610166565b806301ffc9a71461016b57806306fdde03146101a8578063081812fc146101d3578063095ea7b314610210578063131dbd0914610239578063238a470914610262575b600080fd5b34801561017757600080fd5b50610192600480360381019061018d91906123d3565b6105ce565b60405161019f919061241b565b60405180910390f35b3480156101b457600080fd5b506101bd61062f565b6040516101ca91906124c6565b60405180910390f35b3480156101df57600080fd5b506101fa60048036038101906101f5919061251e565b6106c1565b604051610207919061258c565b60405180910390f35b34801561021c57600080fd5b50610237600480360381019061023291906125d3565b6106dd565b005b34801561024557600080fd5b50610260600480360381019061025b919061251e565b6106f3565b005b34801561026e57600080fd5b506102896004803603810190610284919061251e565b610705565b005b34801561029757600080fd5b506102b260048036038101906102ad9190612613565b610717565b005b3480156102c057600080fd5b506102c9610819565b005b3480156102d757600080fd5b506102f260048036038101906102ed9190612613565b610871565b005b61030e6004803603810190610309919061251e565b610891565b005b34801561031c57600080fd5b506103376004803603810190610332919061251e565b610a93565b604051610344919061258c565b60405180910390f35b34801561035957600080fd5b50610374600480360381019061036f9190612666565b610aa5565b60405161038191906126a2565b60405180910390f35b34801561039657600080fd5b5061039f610b5f565b005b3480156103ad57600080fd5b506103b6610b73565b6040516103c3919061258c565b60405180910390f35b6103e660048036038101906103e191906126bd565b610b9d565b005b3480156103f457600080fd5b506103fd610da4565b60405161040a91906124c6565b60405180910390f35b34801561041f57600080fd5b5061043a60048036038101906104359190612729565b610e36565b005b34801561044857600080fd5b50610451610e4c565b60405161045e91906126a2565b60405180910390f35b34801561047357600080fd5b5061048e6004803603810190610489919061289e565b610e56565b005b34801561049c57600080fd5b506104a5610e73565b6040516104b291906126a2565b60405180910390f35b3480156104c757600080fd5b506104e260048036038101906104dd919061251e565b610e7d565b6040516104ef91906124c6565b60405180910390f35b34801561050457600080fd5b5061051f600480360381019061051a919061251e565b610f90565b60405161052f9493929190612942565b60405180910390f35b34801561054457600080fd5b5061055f600480360381019061055a9190612987565b610fed565b60405161056c919061241b565b60405180910390f35b34801561058157600080fd5b5061059c60048036038101906105979190612666565b611081565b005b6105b860048036038101906105b39190612a68565b611107565b6040516105c591906126a2565b60405180910390f35b6000634906490660e01b7bffffffffffffffffffffffffffffffffffffffffffffffffffffffff1916827bffffffffffffffffffffffffffffffffffffffffffffffffffffffff191614806106285750610627826111c5565b5b9050919050565b60606000805461063e90612ae0565b80601f016020809104026020016040519081016040528092919081815260200182805461066a90612ae0565b80156106b75780601f1061068c576101008083540402835291602001916106b7565b820191906000526020600020905b81548152906001019060200180831161069a57829003601f168201915b5050505050905090565b60006106cc826112a7565b506106d68261132f565b9050919050565b6106ef82826106ea61136c565b611374565b5050565b6106fb611386565b8060098190555050565b61070d611386565b80600a8190555050565b600073ffffffffffffffffffffffffffffffffffffffff168273ffffffffffffffffffffffffffffffffffffffff16036107895760006040517f64a0ae92000000000000000000000000000000000000000000000000000000008152600401610780919061258c565b60405180910390fd5b600061079d838361079861136c565b61140d565b90508373ffffffffffffffffffffffffffffffffffffffff168173ffffffffffffffffffffffffffffffffffffffff1614610813578382826040517f64283d7b00000000000000000000000000000000000000000000000000000000815260040161080a93929190612b11565b60405180910390fd5b50505050565b610821611386565b610829610b73565b73ffffffffffffffffffffffffffffffffffffffff166108fc479081150290604051600060405180830381858888f1935050505015801561086e573d6000803e3d6000fd5b50565b61088c83838360405180602001604052806000815250610e56565b505050565b6000600b6000838152602001908152602001600020604051806080016040529081600082015481526020016001820160009054906101000a900473ffffffffffffffffffffffffffffffffffffffff1673ffffffffffffffffffffffffffffffffffffffff1673ffffffffffffffffffffffffffffffffffffffff168152602001600282015481526020016003820160009054906101000a900460ff1615151515815250509050806060015161097c576040517f08c379a000000000000000000000000000000000000000000000000000000000815260040161097390612b94565b60405180910390fd5b80604001513410156109c3576040517f08c379a00000000000000000000000000000000000000000000000000000000081526004016109ba90612c00565b60405180910390fd5b806020015173ffffffffffffffffffffffffffffffffffffffff166108fc82604001519081150290604051600060405180830381858888f19350505050158015610a11573d6000803e3d6000fd5b506000600b600084815260200190815260200160002060030160006101000a81548160ff021916908315150217905550610a5081602001513384611627565b7f6329e40c0365262ebbff5ca819385c2b9713dcaa050ed07866d72c441395699a82338360400151604051610a8793929190612c20565b60405180910390a15050565b6000610a9e826112a7565b9050919050565b60008073ffffffffffffffffffffffffffffffffffffffff168273ffffffffffffffffffffffffffffffffffffffff1603610b185760006040517f89c62b64000000000000000000000000000000000000000000000000000000008152600401610b0f919061258c565b60405180910390fd5b600360008373ffffffffffffffffffffffffffffffffffffffff1673ffffffffffffffffffffffffffffffffffffffff168152602001908152602001600020549050919050565b610b67611386565b610b716000611794565b565b6000600760009054906101000a900473ffffffffffffffffffffffffffffffffffffffff16905090565b3373ffffffffffffffffffffffffffffffffffffffff16610bbd83610a93565b73ffffffffffffffffffffffffffffffffffffffff1614610c13576040517f08c379a0000000000000000000000000000000000000000000000000000000008152600401610c0a90612cc9565b60405180910390fd5b60008111610c56576040517f08c379a0000000000000000000000000000000000000000000000000000000008152600401610c4d90612d35565b60405180910390fd5b6009543414610c9a576040517f08c379a0000000000000000000000000000000000000000000000000000000008152600401610c9190612da1565b60405180910390fd5b60405180608001604052808381526020013373ffffffffffffffffffffffffffffffffffffffff16815260200182815260200160011515815250600b60008481526020019081526020016000206000820151816000015560208201518160010160006101000a81548173ffffffffffffffffffffffffffffffffffffffff021916908373ffffffffffffffffffffffffffffffffffffffff1602179055506040820151816002015560608201518160030160006101000a81548160ff0219169083151502179055509050507f5f9c03de076f5063cd3ebcfe8ef7aa8af378e4b35a83c77ba9777e97083879a2823383604051610d9893929190612c20565b60405180910390a15050565b606060018054610db390612ae0565b80601f0160208091040260200160405190810160405280929190818152602001828054610ddf90612ae0565b8015610e2c5780601f10610e0157610100808354040283529160200191610e2c565b820191906000526020600020905b815481529060010190602001808311610e0f57829003601f168201915b5050505050905090565b610e48610e4161136c565b838361185a565b5050565b6000600a54905090565b610e61848484610717565b610e6d848484846119c9565b50505050565b6000600954905090565b6060610e88826112a7565b506000600660008481526020019081526020016000208054610ea990612ae0565b80601f0160208091040260200160405190810160405280929190818152602001828054610ed590612ae0565b8015610f225780601f10610ef757610100808354040283529160200191610f22565b820191906000526020600020905b815481529060010190602001808311610f0557829003601f168201915b505050505090506000610f33611b80565b90506000815103610f48578192505050610f8b565b600082511115610f7d578082604051602001610f65929190612dfd565b60405160208183030381529060405292505050610f8b565b610f8684611b97565b925050505b919050565b600b6020528060005260406000206000915090508060000154908060010160009054906101000a900473ffffffffffffffffffffffffffffffffffffffff16908060020154908060030160009054906101000a900460ff16905084565b6000600560008473ffffffffffffffffffffffffffffffffffffffff1673ffffffffffffffffffffffffffffffffffffffff16815260200190815260200160002060008373ffffffffffffffffffffffffffffffffffffffff1673ffffffffffffffffffffffffffffffffffffffff16815260200190815260200160002060009054906101000a900460ff16905092915050565b611089611386565b600073ffffffffffffffffffffffffffffffffffffffff168173ffffffffffffffffffffffffffffffffffffffff16036110fb5760006040517f1e4fbdf70000000000000000000000000000000000000000000000000000000081526004016110f2919061258c565b60405180910390fd5b61110481611794565b50565b6000600a5434101561114e576040517f08c379a000000000000000000000000000000000000000000000000000000000815260040161114590612e6d565b60405180910390fd5b6008600081548092919061116190612ebc565b9190505550600060085490506111773382611c00565b6111818184611cf9565b7f06becd955c918828f6e985541acbf49cc842c9e9bd569fffc7698e721ef135758133856040516111b493929190612f04565b60405180910390a180915050919050565b60007f80ac58cd000000000000000000000000000000000000000000000000000000007bffffffffffffffffffffffffffffffffffffffffffffffffffffffff1916827bffffffffffffffffffffffffffffffffffffffffffffffffffffffff1916148061129057507f5b5e139f000000000000000000000000000000000000000000000000000000007bffffffffffffffffffffffffffffffffffffffffffffffffffffffff1916827bffffffffffffffffffffffffffffffffffffffffffffffffffffffff1916145b806112a0575061129f82611d55565b5b9050919050565b6000806112b383611dbf565b9050600073ffffffffffffffffffffffffffffffffffffffff168173ffffffffffffffffffffffffffffffffffffffff160361132657826040517f7e27328900000000000000000000000000000000000000000000000000000000815260040161131d91906126a2565b60405180910390fd5b80915050919050565b60006004600083815260200190815260200160002060009054906101000a900473ffffffffffffffffffffffffffffffffffffffff169050919050565b600033905090565b6113818383836001611dfc565b505050565b61138e61136c565b73ffffffffffffffffffffffffffffffffffffffff166113ac610b73565b73ffffffffffffffffffffffffffffffffffffffff161461140b576113cf61136c565b6040517f118cdaa7000000000000000000000000000000000000000000000000000000008152600401611402919061258c565b60405180910390fd5b565b60008061141984611dbf565b9050600073ffffffffffffffffffffffffffffffffffffffff168373ffffffffffffffffffffffffffffffffffffffff161461145b5761145a818486611fc1565b5b600073ffffffffffffffffffffffffffffffffffffffff168173ffffffffffffffffffffffffffffffffffffffff16146114ec5761149d600085600080611dfc565b6001600360008373ffffffffffffffffffffffffffffffffffffffff1673ffffffffffffffffffffffffffffffffffffffff168152602001908152602001600020600082825403925050819055505b600073ffffffffffffffffffffffffffffffffffffffff168573ffffffffffffffffffffffffffffffffffffffff161461156f576001600360008773ffffffffffffffffffffffffffffffffffffffff1673ffffffffffffffffffffffffffffffffffffffff168152602001908152602001600020600082825401925050819055505b846002600086815260200190815260200160002060006101000a81548173ffffffffffffffffffffffffffffffffffffffff021916908373ffffffffffffffffffffffffffffffffffffffff160217905550838573ffffffffffffffffffffffffffffffffffffffff168273ffffffffffffffffffffffffffffffffffffffff167fddf252ad1be2c89b69c2b068fc378daa952ba7f163c4a11628f55a4df523b3ef60405160405180910390a4809150509392505050565b600073ffffffffffffffffffffffffffffffffffffffff168273ffffffffffffffffffffffffffffffffffffffff16036116995760006040517f64a0ae92000000000000000000000000000000000000000000000000000000008152600401611690919061258c565b60405180910390fd5b60006116a78383600061140d565b9050600073ffffffffffffffffffffffffffffffffffffffff168173ffffffffffffffffffffffffffffffffffffffff160361171a57816040517f7e27328900000000000000000000000000000000000000000000000000000000815260040161171191906126a2565b60405180910390fd5b8373ffffffffffffffffffffffffffffffffffffffff168173ffffffffffffffffffffffffffffffffffffffff161461178e578382826040517f64283d7b00000000000000000000000000000000000000000000000000000000815260040161178593929190612b11565b60405180910390fd5b50505050565b6000600760009054906101000a900473ffffffffffffffffffffffffffffffffffffffff16905081600760006101000a81548173ffffffffffffffffffffffffffffffffffffffff021916908373ffffffffffffffffffffffffffffffffffffffff1602179055508173ffffffffffffffffffffffffffffffffffffffff168173ffffffffffffffffffffffffffffffffffffffff167f8be0079c531659141344cd1fd0a4f28419497f9722a3daafe3b4186f6b6457e060405160405180910390a35050565b600073ffffffffffffffffffffffffffffffffffffffff168273ffffffffffffffffffffffffffffffffffffffff16036118cb57816040517f5b08ba180000000000000000000000000000000000000000000000000000000081526004016118c2919061258c565b60405180910390fd5b80600560008573ffffffffffffffffffffffffffffffffffffffff1673ffffffffffffffffffffffffffffffffffffffff16815260200190815260200160002060008473ffffffffffffffffffffffffffffffffffffffff1673ffffffffffffffffffffffffffffffffffffffff16815260200190815260200160002060006101000a81548160ff0219169083151502179055508173ffffffffffffffffffffffffffffffffffffffff168373ffffffffffffffffffffffffffffffffffffffff167f17307eab39ab6107e8899845ad3d59bd9653f200f220920489ca2b5937696c31836040516119bc919061241b565b60405180910390a3505050565b60008373ffffffffffffffffffffffffffffffffffffffff163b1115611b7a578273ffffffffffffffffffffffffffffffffffffffff1663150b7a02611a0d61136c565b8685856040518563ffffffff1660e01b8152600401611a2f9493929190612f97565b6020604051808303816000875af1925050508015611a6b57506040513d601f19601f82011682018060405250810190611a689190612ff8565b60015b611aef573d8060008114611a9b576040519150601f19603f3d011682016040523d82523d6000602084013e611aa0565b606091505b506000815103611ae757836040517f64a0ae92000000000000000000000000000000000000000000000000000000008152600401611ade919061258c565b60405180910390fd5b805181602001fd5b63150b7a0260e01b7bffffffffffffffffffffffffffffffffffffffffffffffffffffffff1916817bffffffffffffffffffffffffffffffffffffffffffffffffffffffff191614611b7857836040517f64a0ae92000000000000000000000000000000000000000000000000000000008152600401611b6f919061258c565b60405180910390fd5b505b50505050565b606060405180602001604052806000815250905090565b6060611ba2826112a7565b506000611bad611b80565b90506000815111611bcd5760405180602001604052806000815250611bf8565b80611bd784612085565b604051602001611be8929190612dfd565b6040516020818303038152906040525b915050919050565b600073ffffffffffffffffffffffffffffffffffffffff168273ffffffffffffffffffffffffffffffffffffffff1603611c725760006040517f64a0ae92000000000000000000000000000000000000000000000000000000008152600401611c69919061258c565b60405180910390fd5b6000611c808383600061140d565b9050600073ffffffffffffffffffffffffffffffffffffffff168173ffffffffffffffffffffffffffffffffffffffff1614611cf45760006040517f73c6ac6e000000000000000000000000000000000000000000000000000000008152600401611ceb919061258c565b60405180910390fd5b505050565b80600660008481526020019081526020016000209081611d1991906131d1565b507ff8e1a15aba9398e019f0b49df1a4fde98ee17ae345cb5f6b5e2c27f5033e8ce782604051611d4991906126a2565b60405180910390a15050565b60007f01ffc9a7000000000000000000000000000000000000000000000000000000007bffffffffffffffffffffffffffffffffffffffffffffffffffffffff1916827bffffffffffffffffffffffffffffffffffffffffffffffffffffffff1916149050919050565b60006002600083815260200190815260200160002060009054906101000a900473ffffffffffffffffffffffffffffffffffffffff169050919050565b8080611e355750600073ffffffffffffffffffffffffffffffffffffffff168273ffffffffffffffffffffffffffffffffffffffff1614155b15611f69576000611e45846112a7565b9050600073ffffffffffffffffffffffffffffffffffffffff168373ffffffffffffffffffffffffffffffffffffffff1614158015611eb057508273ffffffffffffffffffffffffffffffffffffffff168173ffffffffffffffffffffffffffffffffffffffff1614155b8015611ec35750611ec18184610fed565b155b15611f0557826040517fa9fbf51f000000000000000000000000000000000000000000000000000000008152600401611efc919061258c565b60405180910390fd5b8115611f6757838573ffffffffffffffffffffffffffffffffffffffff168273ffffffffffffffffffffffffffffffffffffffff167f8c5be1e5ebec7d5bd14f71427d1e84f3dd0314c0f7b2291e5b200ac8c7c3b92560405160405180910390a45b505b836004600085815260200190815260200160002060006101000a81548173ffffffffffffffffffffffffffffffffffffffff021916908373ffffffffffffffffffffffffffffffffffffffff16021790555050505050565b611fcc838383612153565b61208057600073ffffffffffffffffffffffffffffffffffffffff168373ffffffffffffffffffffffffffffffffffffffff160361204157806040517f7e27328900000000000000000000000000000000000000000000000000000000815260040161203891906126a2565b60405180910390fd5b81816040517f177e802f0000000000000000000000000000000000000000000000000000000081526004016120779291906132a3565b60405180910390fd5b505050565b60606000600161209484612214565b01905060008167ffffffffffffffff8111156120b3576120b2612773565b5b6040519080825280601f01601f1916602001820160405280156120e55781602001600182028036833780820191505090505b509050600082602001820190505b600115612148578080600190039150507f3031323334353637383961626364656600000000000000000000000000000000600a86061a8153600a858161213c5761213b6132cc565b5b049450600085036120f3575b819350505050919050565b60008073ffffffffffffffffffffffffffffffffffffffff168373ffffffffffffffffffffffffffffffffffffffff161415801561220b57508273ffffffffffffffffffffffffffffffffffffffff168473ffffffffffffffffffffffffffffffffffffffff1614806121cc57506121cb8484610fed565b5b8061220a57508273ffffffffffffffffffffffffffffffffffffffff166121f28361132f565b73ffffffffffffffffffffffffffffffffffffffff16145b5b90509392505050565b600080600090507a184f03e93ff9f4daa797ed6e38ed64bf6a1f0100000000000000008310612272577a184f03e93ff9f4daa797ed6e38ed64bf6a1f0100000000000000008381612268576122676132cc565b5b0492506040810190505b6d04ee2d6d415b85acef810000000083106122af576d04ee2d6d415b85acef810000000083816122a5576122a46132cc565b5b0492506020810190505b662386f26fc1000083106122de57662386f26fc1000083816122d4576122d36132cc565b5b0492506010810190505b6305f5e1008310612307576305f5e10083816122fd576122fc6132cc565b5b0492506008810190505b612710831061232c576127108381612322576123216132cc565b5b0492506004810190505b6064831061234f5760648381612345576123446132cc565b5b0492506002810190505b600a831061235e576001810190505b80915050919050565b6000604051905090565b600080fd5b600080fd5b60007fffffffff0000000000000000000000000000000000000000000000000000000082169050919050565b6123b08161237b565b81146123bb57600080fd5b50565b6000813590506123cd816123a7565b92915050565b6000602082840312156123e9576123e8612371565b5b60006123f7848285016123be565b91505092915050565b60008115159050919050565b61241581612400565b82525050565b6000602082019050612430600083018461240c565b92915050565b600081519050919050565b600082825260208201905092915050565b60005b83811015612470578082015181840152602081019050612455565b60008484015250505050565b6000601f19601f8301169050919050565b600061249882612436565b6124a28185612441565b93506124b2818560208601612452565b6124bb8161247c565b840191505092915050565b600060208201905081810360008301526124e0818461248d565b905092915050565b6000819050919050565b6124fb816124e8565b811461250657600080fd5b50565b600081359050612518816124f2565b92915050565b60006020828403121561253457612533612371565b5b600061254284828501612509565b91505092915050565b600073ffffffffffffffffffffffffffffffffffffffff82169050919050565b60006125768261254b565b9050919050565b6125868161256b565b82525050565b60006020820190506125a1600083018461257d565b92915050565b6125b08161256b565b81146125bb57600080fd5b50565b6000813590506125cd816125a7565b92915050565b600080604083850312156125ea576125e9612371565b5b60006125f8858286016125be565b925050602061260985828601612509565b9150509250929050565b60008060006060848603121561262c5761262b612371565b5b600061263a868287016125be565b935050602061264b868287016125be565b925050604061265c86828701612509565b9150509250925092565b60006020828403121561267c5761267b612371565b5b600061268a848285016125be565b91505092915050565b61269c816124e8565b82525050565b60006020820190506126b76000830184612693565b92915050565b600080604083850312156126d4576126d3612371565b5b60006126e285828601612509565b92505060206126f385828601612509565b9150509250929050565b61270681612400565b811461271157600080fd5b50565b600081359050612723816126fd565b92915050565b600080604083850312156127405761273f612371565b5b600061274e858286016125be565b925050602061275f85828601612714565b9150509250929050565b600080fd5b600080fd5b7f4e487b7100000000000000000000000000000000000000000000000000000000600052604160045260246000fd5b6127ab8261247c565b810181811067ffffffffffffffff821117156127ca576127c9612773565b5b80604052505050565b60006127dd612367565b90506127e982826127a2565b919050565b600067ffffffffffffffff82111561280957612808612773565b5b6128128261247c565b9050602081019050919050565b82818337600083830152505050565b600061284161283c846127ee565b6127d3565b90508281526020810184848401111561285d5761285c61276e565b5b61286884828561281f565b509392505050565b600082601f83011261288557612884612769565b5b813561289584826020860161282e565b91505092915050565b600080600080608085870312156128b8576128b7612371565b5b60006128c6878288016125be565b94505060206128d7878288016125be565b93505060406128e887828801612509565b925050606085013567ffffffffffffffff81111561290957612908612376565b5b61291587828801612870565b91505092959194509250565b600061292c8261254b565b9050919050565b61293c81612921565b82525050565b60006080820190506129576000830187612693565b6129646020830186612933565b6129716040830185612693565b61297e606083018461240c565b95945050505050565b6000806040838503121561299e5761299d612371565b5b60006129ac858286016125be565b92505060206129bd858286016125be565b9150509250929050565b600067ffffffffffffffff8211156129e2576129e1612773565b5b6129eb8261247c565b9050602081019050919050565b6000612a0b612a06846129c7565b6127d3565b905082815260208101848484011115612a2757612a2661276e565b5b612a3284828561281f565b509392505050565b600082601f830112612a4f57612a4e612769565b5b8135612a5f8482602086016129f8565b91505092915050565b600060208284031215612a7e57612a7d612371565b5b600082013567ffffffffffffffff811115612a9c57612a9b612376565b5b612aa884828501612a3a565b91505092915050565b7f4e487b7100000000000000000000000000000000000000000000000000000000600052602260045260246000fd5b60006002820490506001821680612af857607f821691505b602082108103612b0b57612b0a612ab1565b5b50919050565b6000606082019050612b26600083018661257d565b612b336020830185612693565b612b40604083018461257d565b949350505050565b7f54686973204e4654206973206e6f74206c697374656420666f722073616c6500600082015250565b6000612b7e601f83612441565b9150612b8982612b48565b602082019050919050565b60006020820190508181036000830152612bad81612b71565b9050919050565b7f496e73756666696369656e74207061796d656e74000000000000000000000000600082015250565b6000612bea601483612441565b9150612bf582612bb4565b602082019050919050565b60006020820190508181036000830152612c1981612bdd565b9050919050565b6000606082019050612c356000830186612693565b612c42602083018561257d565b612c4f6040830184612693565b949350505050565b7f596f7520617265206e6f7420746865206f776e6572206f662074686973204e4660008201527f5400000000000000000000000000000000000000000000000000000000000000602082015250565b6000612cb3602183612441565b9150612cbe82612c57565b604082019050919050565b60006020820190508181036000830152612ce281612ca6565b9050919050565b7f5072696365206d7573742062652067726561746572207468616e207a65726f00600082015250565b6000612d1f601f83612441565b9150612d2a82612ce9565b602082019050919050565b60006020820190508181036000830152612d4e81612d12565b9050919050565b7f4c697374696e6720666565207265717569726564000000000000000000000000600082015250565b6000612d8b601483612441565b9150612d9682612d55565b602082019050919050565b60006020820190508181036000830152612dba81612d7e565b9050919050565b600081905092915050565b6000612dd782612436565b612de18185612dc1565b9350612df1818560208601612452565b80840191505092915050565b6000612e098285612dcc565b9150612e158284612dcc565b91508190509392505050565b7f496e73756666696369656e74206d696e74696e67206665650000000000000000600082015250565b6000612e57601883612441565b9150612e6282612e21565b602082019050919050565b60006020820190508181036000830152612e8681612e4a565b9050919050565b7f4e487b7100000000000000000000000000000000000000000000000000000000600052601160045260246000fd5b6000612ec7826124e8565b91507fffffffffffffffffffffffffffffffffffffffffffffffffffffffffffffffff8203612ef957612ef8612e8d565b5b600182019050919050565b6000606082019050612f196000830186612693565b612f26602083018561257d565b8181036040830152612f38818461248d565b9050949350505050565b600081519050919050565b600082825260208201905092915050565b6000612f6982612f42565b612f738185612f4d565b9350612f83818560208601612452565b612f8c8161247c565b840191505092915050565b6000608082019050612fac600083018761257d565b612fb9602083018661257d565b612fc66040830185612693565b8181036060830152612fd88184612f5e565b905095945050505050565b600081519050612ff2816123a7565b92915050565b60006020828403121561300e5761300d612371565b5b600061301c84828501612fe3565b91505092915050565b60008190508160005260206000209050919050565b60006020601f8301049050919050565b600082821b905092915050565b6000600883026130877fffffffffffffffffffffffffffffffffffffffffffffffffffffffffffffffff8261304a565b613091868361304a565b95508019841693508086168417925050509392505050565b6000819050919050565b60006130ce6130c96130c4846124e8565b6130a9565b6124e8565b9050919050565b6000819050919050565b6130e8836130b3565b6130fc6130f4826130d5565b848454613057565b825550505050565b600090565b613111613104565b61311c8184846130df565b505050565b5b8181101561314057613135600082613109565b600181019050613122565b5050565b601f8211156131855761315681613025565b61315f8461303a565b8101602085101561316e578190505b61318261317a8561303a565b830182613121565b50505b505050565b600082821c905092915050565b60006131a86000198460080261318a565b1980831691505092915050565b60006131c18383613197565b9150826002028217905092915050565b6131da82612436565b67ffffffffffffffff8111156131f3576131f2612773565b5b6131fd8254612ae0565b613208828285613144565b600060209050601f83116001811461323b5760008415613229578287015190505b61323385826131b5565b86555061329b565b601f19841661324986613025565b60005b828110156132715784890151825560018201915060208501945060208101905061324c565b8683101561328e578489015161328a601f891682613197565b8355505b6001600288020188555050505b505050505050565b60006040820190506132b8600083018561257d565b6132c56020830184612693565b9392505050565b7f4e487b7100000000000000000000000000000000000000000000000000000000600052601260045260246000fdfea2646970667358221220a87e7840c29be30aa1de6aaaa9df7777c684e30cf1924c2e4ce42e8571e4882364736f6c63430008180033",
  "linkReferences": {},
  "deployedLinkReferences": {}
}